{
  "_format": "hh-sol-artifact-1",
  "contractName": "PredictionArena",
  "sourceName": "contracts/Predictionstake.sol",
  "abi": [
    {
      "inputs": [
        {
          "internalType": "address payable",
          "name": "_storageWallet",
          "type": "address"
        }
      ],
      "stateMutability": "nonpayable",
      "type": "constructor"
    },
    {
      "anonymous": false,
      "inputs": [
        {
          "indexed": true,
          "internalType": "address",
          "name": "user",
          "type": "address"
        },
        {
          "indexed": false,
          "internalType": "enum PredictionArena.FightSide",
          "name": "side",
          "type": "uint8"
        },
        {
          "indexed": false,
          "internalType": "enum PredictionArena.FightSide",
          "name": "winner",
          "type": "uint8"
        },
        {
          "indexed": false,
          "internalType": "uint256",
          "name": "amount",
          "type": "uint256"
        },
        {
          "indexed": false,
          "internalType": "bool",
          "name": "won",
          "type": "bool"
        }
      ],
      "name": "DungeonPlayed",
      "type": "event"
    },
    {
      "anonymous": false,
      "inputs": [
        {
          "indexed": true,
          "internalType": "address",
          "name": "user",
          "type": "address"
        },
        {
          "indexed": false,
          "internalType": "enum PredictionArena.LootChoice",
          "name": "choice",
          "type": "uint8"
        },
        {
          "indexed": false,
          "internalType": "enum PredictionArena.LootChoice",
          "name": "result",
          "type": "uint8"
        },
        {
          "indexed": false,
          "internalType": "uint256",
          "name": "amount",
          "type": "uint256"
        },
        {
          "indexed": false,
          "internalType": "bool",
          "name": "won",
          "type": "bool"
        }
      ],
      "name": "LootPlayed",
      "type": "event"
    },
    {
      "anonymous": false,
      "inputs": [
        {
          "indexed": true,
          "internalType": "address",
          "name": "user",
          "type": "address"
        },
        {
          "indexed": false,
          "internalType": "enum PredictionArena.MarketDirection",
          "name": "direction",
          "type": "uint8"
        },
        {
          "indexed": false,
          "internalType": "enum PredictionArena.TimeFrame",
          "name": "timeframe",
          "type": "uint8"
        },
        {
          "indexed": false,
          "internalType": "enum PredictionArena.MarketDirection",
          "name": "result",
          "type": "uint8"
        },
        {
          "indexed": false,
          "internalType": "uint256",
          "name": "amount",
          "type": "uint256"
        },
        {
          "indexed": false,
          "internalType": "bool",
          "name": "won",
          "type": "bool"
        }
      ],
      "name": "MarketPlayed",
      "type": "event"
    },
    {
      "inputs": [],
      "name": "getContractBalance",
      "outputs": [
        {
          "internalType": "uint256",
          "name": "",
          "type": "uint256"
        }
      ],
      "stateMutability": "view",
      "type": "function"
    },
    {
      "inputs": [],
      "name": "owner",
      "outputs": [
        {
          "internalType": "address",
          "name": "",
          "type": "address"
        }
      ],
      "stateMutability": "view",
      "type": "function"
    },
    {
      "inputs": [
        {
          "internalType": "enum PredictionArena.FightSide",
          "name": "side",
          "type": "uint8"
        }
      ],
      "name": "playDungeonGame",
      "outputs": [],
      "stateMutability": "payable",
      "type": "function"
    },
    {
      "inputs": [
        {
          "internalType": "enum PredictionArena.LootChoice",
          "name": "choice",
          "type": "uint8"
        }
      ],
      "name": "playLootGame",
      "outputs": [],
      "stateMutability": "payable",
      "type": "function"
    },
    {
      "inputs": [
        {
          "internalType": "enum PredictionArena.MarketDirection",
          "name": "direction",
          "type": "uint8"
        },
        {
          "internalType": "enum PredictionArena.TimeFrame",
          "name": "timeframe",
          "type": "uint8"
        }
      ],
      "name": "playMarketGame",
      "outputs": [],
      "stateMutability": "payable",
      "type": "function"
    },
    {
      "inputs": [],
      "name": "storageWallet",
      "outputs": [
        {
          "internalType": "address payable",
          "name": "",
          "type": "address"
        }
      ],
      "stateMutability": "view",
      "type": "function"
    },
    {
      "inputs": [],
      "name": "totalAIStakes",
      "outputs": [
        {
          "internalType": "uint256",
          "name": "",
          "type": "uint256"
        }
      ],
      "stateMutability": "view",
      "type": "function"
    },
    {
      "inputs": [],
      "name": "totalPlayerStakes",
      "outputs": [
        {
          "internalType": "uint256",
          "name": "",
          "type": "uint256"
        }
      ],
      "stateMutability": "view",
      "type": "function"
    },
    {
      "inputs": [
        {
          "internalType": "address payable",
          "name": "newWallet",
          "type": "address"
        }
      ],
      "name": "updateStorageWallet",
      "outputs": [],
      "stateMutability": "nonpayable",
      "type": "function"
    }
  ],
  "bytecode": "0x608060405234801561001057600080fd5b50604051610f80380380610f808339818101604052810190610032919061011c565b336000806101000a81548173ffffffffffffffffffffffffffffffffffffffff021916908373ffffffffffffffffffffffffffffffffffffffff16021790555080600160006101000a81548173ffffffffffffffffffffffffffffffffffffffff021916908373ffffffffffffffffffffffffffffffffffffffff16021790555050610149565b600080fd5b600073ffffffffffffffffffffffffffffffffffffffff82169050919050565b60006100e9826100be565b9050919050565b6100f9816100de565b811461010457600080fd5b50565b600081519050610116816100f0565b92915050565b600060208284031215610132576101316100b9565b5b600061014084828501610107565b91505092915050565b610e28806101586000396000f3fe6080604052600436106100865760003560e01c80638da5cb5b116100595780638da5cb5b146101195780639faff6ea14610144578063e9516f531461016f578063f55281311461018b578063f92d6007146101b657610086565b806302d3f21b1461008b578063569bfc56146100a7578063619f3f61146100c35780636f9fb98a146100ee575b600080fd5b6100a560048036038101906100a09190610856565b6101df565b005b6100c160048036038101906100bc91906108bb565b610366565b005b3480156100cf57600080fd5b506100d861054e565b6040516100e59190610929565b60405180910390f35b3480156100fa57600080fd5b50610103610574565b604051610110919061095d565b60405180910390f35b34801561012557600080fd5b5061012e61057c565b60405161013b9190610999565b60405180910390f35b34801561015057600080fd5b506101596105a0565b604051610166919061095d565b60405180910390f35b610189600480360381019061018491906109d9565b6105a6565b005b34801561019757600080fd5b506101a061072f565b6040516101ad919061095d565b60405180910390f35b3480156101c257600080fd5b506101dd60048036038101906101d89190610a32565b610735565b005b60003411610222576040517f08c379a000000000000000000000000000000000000000000000000000000000815260040161021990610abc565b60405180910390fd5b60008081600181111561023857610237610adc565b5b84600181111561024b5761024a610adc565b5b14905080156102a0573373ffffffffffffffffffffffffffffffffffffffff166108fc349081150290604051600060405180830381858888f1935050505015801561029a573d6000803e3d6000fd5b5061030a565b600160009054906101000a900473ffffffffffffffffffffffffffffffffffffffff1673ffffffffffffffffffffffffffffffffffffffff166108fc349081150290604051600060405180830381858888f19350505050158015610308573d6000803e3d6000fd5b505b3373ffffffffffffffffffffffffffffffffffffffff167feb329cff97dcf6cf4e83725d40cb4bba0ec2e4c503baf283e0203257cc59acac8585853486604051610358959493929190610bb6565b60405180910390a250505050565b600034116103a9576040517f08c379a00000000000000000000000000000000000000000000000000000000081526004016103a090610abc565b60405180910390fd5b600060018111156103bd576103bc610adc565b5b8160018111156103d0576103cf610adc565b5b036103f35734600260008282546103e79190610c38565b9250508190555061040d565b34600360008282546104059190610c38565b925050819055505b60008081600181111561042357610422610adc565b5b83600181111561043657610435610adc565b5b149050801561048b573373ffffffffffffffffffffffffffffffffffffffff166108fc349081150290604051600060405180830381858888f19350505050158015610485573d6000803e3d6000fd5b506104f5565b600160009054906101000a900473ffffffffffffffffffffffffffffffffffffffff1673ffffffffffffffffffffffffffffffffffffffff166108fc349081150290604051600060405180830381858888f193505050501580156104f3573d6000803e3d6000fd5b505b3373ffffffffffffffffffffffffffffffffffffffff167f2990477af3f369636081863f0e1fb7857aa2fafba4c39cb78b5588423374e00b848434856040516105419493929190610cb4565b60405180910390a2505050565b600160009054906101000a900473ffffffffffffffffffffffffffffffffffffffff1681565b600047905090565b60008054906101000a900473ffffffffffffffffffffffffffffffffffffffff1681565b60035481565b600034116105e9576040517f08c379a00000000000000000000000000000000000000000000000000000000081526004016105e090610abc565b60405180910390fd5b600060019050600081600381111561060457610603610adc565b5b83600381111561061757610616610adc565b5b149050801561066c573373ffffffffffffffffffffffffffffffffffffffff166108fc349081150290604051600060405180830381858888f19350505050158015610666573d6000803e3d6000fd5b506106d6565b600160009054906101000a900473ffffffffffffffffffffffffffffffffffffffff1673ffffffffffffffffffffffffffffffffffffffff166108fc349081150290604051600060405180830381858888f193505050501580156106d4573d6000803e3d6000fd5b505b3373ffffffffffffffffffffffffffffffffffffffff167f0edff93553e330b9bf5eec881bbcbaaba3fe565cecdbb8188273a9d626052bff848434856040516107229493929190610d41565b60405180910390a2505050565b60025481565b60008054906101000a900473ffffffffffffffffffffffffffffffffffffffff1673ffffffffffffffffffffffffffffffffffffffff163373ffffffffffffffffffffffffffffffffffffffff16146107c3576040517f08c379a00000000000000000000000000000000000000000000000000000000081526004016107ba90610dd2565b60405180910390fd5b80600160006101000a81548173ffffffffffffffffffffffffffffffffffffffff021916908373ffffffffffffffffffffffffffffffffffffffff16021790555050565b600080fd5b6002811061081957600080fd5b50565b60008135905061082b8161080c565b92915050565b6003811061083e57600080fd5b50565b60008135905061085081610831565b92915050565b6000806040838503121561086d5761086c610807565b5b600061087b8582860161081c565b925050602061088c85828601610841565b9150509250929050565b600281106108a357600080fd5b50565b6000813590506108b581610896565b92915050565b6000602082840312156108d1576108d0610807565b5b60006108df848285016108a6565b91505092915050565b600073ffffffffffffffffffffffffffffffffffffffff82169050919050565b6000610913826108e8565b9050919050565b61092381610908565b82525050565b600060208201905061093e600083018461091a565b92915050565b6000819050919050565b61095781610944565b82525050565b6000602082019050610972600083018461094e565b92915050565b6000610983826108e8565b9050919050565b61099381610978565b82525050565b60006020820190506109ae600083018461098a565b92915050565b600481106109c157600080fd5b50565b6000813590506109d3816109b4565b92915050565b6000602082840312156109ef576109ee610807565b5b60006109fd848285016109c4565b91505092915050565b610a0f81610908565b8114610a1a57600080fd5b50565b600081359050610a2c81610a06565b92915050565b600060208284031215610a4857610a47610807565b5b6000610a5684828501610a1d565b91505092915050565b600082825260208201905092915050565b7f5374616b65207265717569726564000000000000000000000000000000000000600082015250565b6000610aa6600e83610a5f565b9150610ab182610a70565b602082019050919050565b60006020820190508181036000830152610ad581610a99565b9050919050565b7f4e487b7100000000000000000000000000000000000000000000000000000000600052602160045260246000fd5b60028110610b1c57610b1b610adc565b5b50565b6000819050610b2d82610b0b565b919050565b6000610b3d82610b1f565b9050919050565b610b4d81610b32565b82525050565b60038110610b6457610b63610adc565b5b50565b6000819050610b7582610b53565b919050565b6000610b8582610b67565b9050919050565b610b9581610b7a565b82525050565b60008115159050919050565b610bb081610b9b565b82525050565b600060a082019050610bcb6000830188610b44565b610bd86020830187610b8c565b610be56040830186610b44565b610bf2606083018561094e565b610bff6080830184610ba7565b9695505050505050565b7f4e487b7100000000000000000000000000000000000000000000000000000000600052601160045260246000fd5b6000610c4382610944565b9150610c4e83610944565b9250828201905080821115610c6657610c65610c09565b5b92915050565b60028110610c7d57610c7c610adc565b5b50565b6000819050610c8e82610c6c565b919050565b6000610c9e82610c80565b9050919050565b610cae81610c93565b82525050565b6000608082019050610cc96000830187610ca5565b610cd66020830186610ca5565b610ce3604083018561094e565b610cf06060830184610ba7565b95945050505050565b60048110610d0a57610d09610adc565b5b50565b6000819050610d1b82610cf9565b919050565b6000610d2b82610d0d565b9050919050565b610d3b81610d20565b82525050565b6000608082019050610d566000830187610d32565b610d636020830186610d32565b610d70604083018561094e565b610d7d6060830184610ba7565b95945050505050565b7f4e6f74206f776e65720000000000000000000000000000000000000000000000600082015250565b6000610dbc600983610a5f565b9150610dc782610d86565b602082019050919050565b60006020820190508181036000830152610deb81610daf565b905091905056fea2646970667358221220540fb939b6e5577c31e5887fcde73f97432ad8d84adb5f419c3169c65178440464736f6c63430008140033",
  "linkReferences": {},
  "deployedLinkReferences": {}
}